:020000040800F2
:1000000008040020E11000086D1000086F100008BF
:10001000711000087310000875100008000000003F
:100020000000000000000000000000007710000841
:1000300079100008000000007B1000087D10000807
:1000400005110008091100080D1100081111000820
:100050001511000889100008191100081D11000869
:100060002111000825110008291100082D11000890
:100070003111000835110008391100083D11000840
:100080004111000845110008491100084D110008F0
:100090005111000855110008591100085D110008A0
:1000A0006111000865110008691100086D11000850
:1000B0007111000875110008791100087D11000800
:1000C0008111000885110008891100088D110008B0
:1000D0009111000895110008991100089D11000860
:1000E000A1110008A5110008A9110008AD11000810
:1000F000B1110008B5110008B9110008BD110008C0
:10010000C1110008C5110008C9110008CD1100086F
:10011000D1110008D5110008D9110008DD1100081F
:10012000E1110008E5110008E9110008ED110008CF
:10013000F1110008F5110008F9110008FD1100087F
:100140000112000805120008091200080D1200082B
:100150001112000815120008191200081D120008DB
:100160002112000825120008291200082D1200088B
:100170003112000835120008391200080000000092
:100180003D1200084112000838B50400002520780F
:10019000C0076FD5DFF82406006810F00C000428B3
:1001A0000BD0DFF81806006810F00C0008280ED1FC
:1001B000DFF80C060068400209D5DFF80806006881
:1001C000800357D56068002854D10120CFE16068D2
:1001D000B0F5803F08D1DFF8EC05006850F48030BE
:1001E000DFF8E015086024E06068B0F5A02F10D1BA
:1001F000DFF8D005006850F48020DFF8C8150860EB
:10020000DFF8C005006850F48030DFF8B8150860EA
:100210000FE0DFF8B005006830F48030DFF8A41597
:100220000860DFF8A005006830F48020DFF894153E
:100230000860606800280ED000F017FB0500DFF8AA
:1002400084050068800315D400F00FFB401B65286F
:10025000F5D303208BE100F008FB0500DFF864050F
:100260000068800306D500F000FB401B6528F5D32D
:1002700003207CE1207880072BD5DFF8400500685B
:1002800010F00C0F0BD0DFF83405006810F00C00F4
:10029000082837D1DFF828050068400232D4DFF89B
:1002A00024050068800704D5E068012801D00120FA
:1002B0005DE1DFF8100500685FF0F851B1FA81F1F7
:1002C00030F0F800226912FA01F10843DFF8F41463
:1002D00008602078000762D5606900284CD00120B2
:1002E000DFF8E414086000F0C0FA0500DFF8DC0471
:1002F0000068800753D400F0B8FA401B0328F5D3F8
:10030000032034E1E068002823D00120DFF8C01486
:10031000086000F0AAFA0500DFF8A804006880076A
:1003200006D400F0A2FA401B0328F5D303201EE1F7
:10033000DFF8900400685FF0F851B1FA81F130F015
:10034000F800226912FA01F10843DFF87814086016
:10035000BFE70020DFF87814086000F086FA050097
:10036000DFF8600400688007B3D500F07EFA401B18
:100370000328F5D30320FAE00020DFF84C140860CE
:1003800000F073FA0500DFF844040068800706D522
:1003900000F06BFA401B0328F5D30320E7E0207838
:1003A00040077CD500200090DFF82804006850F05A
:1003B0008050DFF820140860DFF81804006810F09F
:1003C000805000900098DFF81004006850F48070AE
:1003D000DFF80414086000F048FA0500DFF8F803BD
:1003E0000068C00506D400F040FA401B0328F5D38E
:1003F0000320BCE0A068012808D1DFF8E003006812
:1004000050F00100DFF8D413086023E0A06805284D
:1004100010D1DFF8C803006850F00400DFF8BC1307
:100420000860DFF8B803006850F00100DFF8AC1393
:1004300008600FE0DFF8A403006840084000DFF820
:100440009C130860DFF89403006830F00400DFF8C4
:100450008C130860A068002810D000F006FA050090
:10046000DFF878030068800719D400F0FEF9401B1C
:1004700041F289318842F3D3032078E000F0F5F9A6
:100480000500DFF858030068800708D500F0EDF993
:10049000401B41F289318842F3D3032067E0A06911
:1004A000002863D0DFF81403006810F00C0008285F
:1004B0005AD0A069022844D10020DFF82413086034
:1004C00000F0D3F90500DFF8FC020068800106D5D2
:1004D00000F0CBF9401B0328F5D3032047E0DFF8F9
:1004E0000403B0FA80F14FF44040B0FA80F2F020FB
:1004F000B0FA80F0E369256A2B43656A15FA01F1C9
:100500001943A36A5B085B1E13FA02F21143E26A05
:1005100012FA00F00843DFF8A81208600120DFF8A3
:10052000C012086000F0A1F90500DFF89802006829
:1005300080011BD400F099F9401B0328F5D3032058
:1005400015E00020DFF89812086000F08EF9050031
:10055000DFF870020068800108D500F086F9401BC2
:100560000328F5D3032002E0012000E0002032BD83
:1005700070B504000D000026DFF86C02006810F072
:100580000F00A8420BD2DFF860020570DFF85802B6
:10059000006810F00F00A84201D00120C0E02078D0
:1005A000800709D5DFF81402006830F0F000A16878
:1005B0000843DFF8081208602078C00772D5606829
:1005C000012806D1DFF8FC010068800315D4012062
:1005D000A6E06068022802D06068032806D1DFF830
:1005E000E4010068800108D4012099E0DFF8D4011B
:1005F0000068800701D4012092E0DFF8C0010068A4
:100600008008800061680843DFF8B011086000F0DE
:100610002CF90600606801280FD1DFF8A0010068FE
:1006200010F00C0004283DD000F01FF9801B41F2AF
:1006300089318842F1D3032072E0606802280FD12B
:10064000DFF87801006810F00C0008282AD000F0CC
:100650000CF9801B41F289318842F1D303205FE01D
:10066000606803280FD1DFF85401006810F00C0017
:100670000C2817D000F0F9F8801B41F2893188422C
:10068000F1D303204CE0DFF83401006810F00C0FC8
:1006900008D000F0EAF8801B41F289318842F2D399
:1006A00003203DE0DFF84001006810F00F008542B4
:1006B0000BD2DFF834010570DFF82C01006810F070
:1006C0000F00A84201D001202AE02078400707D57A
:1006D0003A48006830F4E050E16808433749086060
:1006E0002078000708D53548006830F4604021695B
:1006F00050EAC1003149086000F017F82F49096835
:100700005FF07062B2FA82F2384B11F0F001D14022
:10071000C95CC84036490860002000F08EF800200F
:1007200070BD01203349086070470020002000217F
:1007300000202248006810F00C00002804D0042893
:1007400004D0082804D034E02B4833E02B4831E0B3
:100750001B48006810F03F001949096849020DD58F
:1007600017490968254AB2FBF0F047F6C0721140FC
:100770001C4AB2FA82F2D14048430CE010490968A1
:100780001D4AB2FBF0F047F6C0721140154AB2FAAA
:1007900082F2D14048430A49096811F440314FF4CC
:1007A0004042B2FA82F2D140491C4900B0FBF1F05C
:1007B00000E0114870470E48006870470838024052
:1007C0000438024000380240800E4742743802402C
:1007D000000047424038024000700040703802403C
:1007E000600047420000FE03003C0240D0100008B9
:1007F000000000204C0047420024F40000127A0060
:1008000080B52348006850F40070214908602048F2
:10081000006850F480601E4908601D48006850F46C
:1008200080701B490860032000F09CF8002000F055
:1008300004F800F0DCF8002002BD10B504001548F3
:1008400000684FF47A71B0FBF1F000F0A5F80022D7
:1008500021005FF0FF3000F089F8002010BD0E4845
:100860000068401C0C49086070470B4800687047DE
:1008700031B5FFF7FAFF0400009D15F1010F00D01C
:100880006D1CFFF7F2FF001BA842FAD331BD000038
:10089000003C0240000000200400002010F007018E
:1008A000484800684FF6FF021040474A52EA0121CB
:1008B000084344490860704742480068C0F302207A
:1008C0007047012110F01F029140404A40B2400998
:1008D00042F82010704740B2002808D509013C4A70
:1008E00040B210F00F00801800F8041C03E009016A
:1008F000384A40B28154704710B410F00700D0F16C
:100900000703052B01D3042301E0D0F10703041DE5
:10091000072C01D2002000E0C01E012414FA03F3CA
:100920005B1E19408140012313FA00F0401E104065
:10093000084310BC704780B5411EB1F1807F01D3E0
:1009400001200EE0401E244908600F215FF0FF30B7
:10095000FFF7C1FF002021490860072020490860F7
:10096000002002BD80B5FFF799FF01BD70B50400FE
:100970000D0016000020FFF79FFF32002900FFF74F
:10098000BBFF0100200040B2FFF7A5FF70BD80B59E
:1009900040B2FFF796FF01BD80B5FFF7CCFF02BD67
:1009A000042806D10E48006850F004000C49086085
:1009B00005E00B48006830F0040009490860704702
:1009C000000000000CED00E00000FA0500E100E08E
:1009D00018ED00E000E400E014E000E018E000E0C2
:1009E00010E000E080B500F001F801BD704780B56F
:1009F0000320FFF7B7FF002200217FF00B00FFF775
:100A0000B5FF002200217FF00A00FFF7AFFF0022B0
:100A100000217FF00900FFF7A9FF002200217FF0ED
:100A20000400FFF7A3FF002200217FF00300FFF77F
:100A30009DFF002200217FF00100FFF797FF0022B9
:100A400000215FF0FF30FFF791FF00220021052019
:100A5000FFF78CFF0520FFF79AFF01BD78B4002453
:100A600000230024002237E00825EDB212F003062F
:100A7000F6B2B600B5402C43DFF8D851960845F8D9
:100A80002640DFF8D44124689C434D68ED0300D52F
:100A90001C43DFF8C4512C60DFF8C04124689C433C
:100AA0004D68AD0300D51C43DFF8B0512C60DFF872
:100AB000B04124689C434D68ED0200D51C43DFF82B
:100AC000A0512C60674C24689C434D68AD0200D552
:100AD0001C43644B1C60521C102A80F0AA80012326
:100AE00013FA02F40B682340A342F4D14C68022CA1
:100AF00002D04C68122C15D1D40810EB8404246A5F
:100B00000F2512F00706F6B2B600B540AC430D69EA
:100B100012F00706F6B2B600B5402C43D50810EB2C
:100B200085052C62046803251600F6B27600B540F0
:100B3000AC430D7915F003051600F6B27600B5400A
:100B40002C4304604C68012C08D04C68022C05D062
:100B50004C68112C02D04C68122C17D184680325E4
:100B60001600F6B27600B540AC43CD681600F6B27A
:100B70007600B5402C438460446801259540AC4321
:100B80004D68C5F3001595402C434460C4680325A7
:100B90001600F6B27600B540AC438D681600F6B28A
:100BA0007600B5402C43C4604C68E40093D5002423
:100BB00000942D4C246854F480442B4D2C602A4C16
:100BC000246814F480440094009C224C950854F846
:100BD00025400F2512F00306F6B2B600B540AC432F
:100BE000224DA84201D100253FE7214DA84201D165
:100BF00001253AE71F4DA84201D1022535E71E4DD8
:100C0000A84201D1032530E71C4DA84201D104259B
:100C10002BE71B4DA84201D1052526E7194DA84217
:100C200001D1062521E7184DA8427FF41DAF072505
:100C30001BE771BC704752B2002A02D089B28161B1
:100C400002E089B2090481617047426989B251406A
:100C50004161704708380140003C0140043C0140BC
:100C6000083C01400C3C0140443802400000024076
:100C70000004024000080240000C02400010024044
:100C80000014024000180240001C024000B593B05E
:100C9000002000905C48006850F080505A4908607D
:100CA0005948006810F08050009000980020009093
:100CB0005648006850F48040544908605348006822
:100CC00010F4804000900098012006905FF480307E
:100CD000079002200C905FF480000D9008200E9089
:100CE0004FF4A8700F90022010900720119006A8D2
:100CF000FFF74AFA0F200190022002900020039093
:100D00004FF4A05004904FF480500590052101A8A5
:100D1000FFF72EFCFFF705FDFFF74DFD4FF47A714D
:100D2000B0FBF1F0FFF738FE0420FFF739FE002298
:100D300000215FF0FF30FFF719FE13B000BD10B5C2
:100D40000024FFF75DFDFFF7A1FF00F065F818E054
:100D500001224FF400712E48FFF76DFF0122202180
:100D60002C48FFF768FF012240212A48FFF763FF64
:100D70004FF47A70FFF77CFD641CE4B2072C00D1BD
:100D80000024E4B2002C09D0022C11D00BD3042C87
:100D900022D016D3062CDBD029D3E9E70021072087
:100DA00000F097F8E4E70121012000F092F8DFE776
:100DB0000021012000F08DF80121022000F089F8C7
:100DC000D6E7002220211348FFF735FF01224021FA
:100DD0001048FFF730FFCBE7002240210D48FFF716
:100DE0002AFF012220210B48FFF725FFC0E7002240
:100DF00020210848FFF71FFF01224FF4007104482B
:100E0000FFF719FFB4E700004038024000700040CF
:100E1000001C02400010024000B587B00020009086
:100E20005148006850F080004F4908604E48006803
:100E300010F0800000900098002000904A48006860
:100E400050F01000484908604748006810F0100052
:100E500000900098002000904348006850F0100077
:100E6000414908604048006810F010000090009868
:100E700000224FF400713D48FFF7DDFE00222021E3
:100E80003B48FFF7D8FE002240213948FFF7D3FE48
:100E90004FF400700190012002900220049001A9FB
:100EA0003248FFF7DBFD2020019001200290022054
:100EB000049001A92E48FFF7D1FD402001900120A8
:100EC00002900220049001A92948FFF7C7FD07B04E
:100ED00000BD10B5040049B2002916D1E00705D5C0
:100EE00000224FF400712148FFF7A5FEA00704D5AA
:100EF000002220211E48FFF79EFE600732D5002207
:100F000040211B48FFF797FE2CE049B2012916D17A
:100F1000E00705D501224FF400711448FFF78BFE5E
:100F2000A00704D5012220211148FFF784FE6007A5
:100F300018D5012240210E48FFF77DFE12E0E007A0
:100F400004D54FF400710948FFF77FFEA00703D5D1
:100F500020210748FFF779FE600703D540210448A8
:100F6000FFF773FE10BD000030380240001C024045
:100F7000001002401248006850F4700010490860E8
:100F80001048006850F001000E49086000200E492A
:100F900008600C4800680D4908400A4908600C4880
:100FA0000C4908600748006830F480200549086053
:100FB0000020094908605FF0006008490860704738
:100FC00088ED00E00038024008380240FFFFF6FEDE
:100FD00010300024043802400C38024008ED00E0D4
:100FE00010B450F8041B79B1026843681218083035
:100FF000DC0744BFA9F10104E31852F8044B43F89D
:10100000044B091FF9D1ECE710BC704710B5074934
:1010100079441831064C7C44163404E00A68081DF3
:10102000511888470146A142F8D110BD2C0000009C
:101030003C0000004EF68851CEF20001086840F4F2
:1010400070000860BFF34F8FBFF36F8F4FF00070D9
:10105000E1EE100A7047000089FFFFFF0800000062
:101060009C00000000000020000000007047FEE728
:10107000FEE7FEE7FEE770477047704780B5FFF771
:10108000EEFBFFF7AFFC01BD7047000000F00BF86E
:10109000002801D0FFF7BAFF0020C046C046FFF786
:1010A0004EFE00F002F80120704700F001B8000089
:1010B0000746384600F002F8FBE7000080B5C0465E
:1010C000C046024A11001820ABBEFBE72600020012
:1010D00000000000000000000102030406070809E8
:1010E0000148804701480047750F0008F1100008CB
:1010F000C046C046FFF79EFFFFF7C8FF0024F4007C
:1011000000000000FFF7FEBFFFF7FEBFFFF7FEBFC6
:10111000FFF7FEBFFFF7FEBFFFF7FEBFFFF7FEBF03
:10112000FFF7FEBFFFF7FEBFFFF7FEBFFFF7FEBFF3
:10113000FFF7FEBFFFF7FEBFFFF7FEBFFFF7FEBFE3
:10114000FFF7FEBFFFF7FEBFFFF7FEBFFFF7FEBFD3
:10115000FFF7FEBFFFF7FEBFFFF7FEBFFFF7FEBFC3
:10116000FFF7FEBFFFF7FEBFFFF7FEBFFFF7FEBFB3
:10117000FFF7FEBFFFF7FEBFFFF7FEBFFFF7FEBFA3
:10118000FFF7FEBFFFF7FEBFFFF7FEBFFFF7FEBF93
:10119000FFF7FEBFFFF7FEBFFFF7FEBFFFF7FEBF83
:1011A000FFF7FEBFFFF7FEBFFFF7FEBFFFF7FEBF73
:1011B000FFF7FEBFFFF7FEBFFFF7FEBFFFF7FEBF63
:1011C000FFF7FEBFFFF7FEBFFFF7FEBFFFF7FEBF53
:1011D000FFF7FEBFFFF7FEBFFFF7FEBFFFF7FEBF43
:1011E000FFF7FEBFFFF7FEBFFFF7FEBFFFF7FEBF33
:1011F000FFF7FEBFFFF7FEBFFFF7FEBFFFF7FEBF23
:10120000FFF7FEBFFFF7FEBFFFF7FEBFFFF7FEBF12
:10121000FFF7FEBFFFF7FEBFFFF7FEBFFFF7FEBF02
:10122000FFF7FEBFFFF7FEBFFFF7FEBFFFF7FEBFF2
:10123000FFF7FEBFFFF7FEBFFFF7FEBFFFF7FEBFE2
:04124000FFF7FEBFF7
:04000005080010F1EE
:00000001FF
